:1000000009C018C017C016C015C050C05AC012C0D1
:1000100011C010C011271FBFCFE5D0E0DEBFCDBF9C
:1000200020E0A0E4B0E001C01D93A434B207E1F7E2
:1000300067D09DC0E5CF48EC5AE060E070E040A991
:1000400051A962A973A940A151A162A173A1415014
:10005000510B610B710B40A951A962A973A940A171
:1000600051A162A173A1452B462B472B61F708953F
:100070004AB541604ABD0AB500FFFDCF0895CF9350
:10008000DF93CBE4D0E0F894D7BDC6BD4FE450E099
:100090004C1B5D0B55BD44BD7894CDDFC150D10BD9
:1000A000C430D10781F7DF91CF91E2CF1F930F9337
:1000B0000FB70F9310E0029A0F910FBF0F911F918E
:1000C00018951F930F930FB70F9310E04F935F9303
:1000D0006F937F938F939F93AF93BF93EF93FF9310
:1000E000E5DFFF91EF91BF91AF919F918F917F914C
:1000F0006F915F914F910F910FBF0F911F911895C5
:1001000046E041B9789441EA4EBD42E04DBD1298B7
:100110000A98089AC4E0D0E0F894D7BDC6BD4FE471
:1001200050E04C1B5D0B55BD44BD789484DFCF5F20
:10013000DF4FCB34D10781F709989ADF129A4AB57D
:1001400044604ABD4BB544604BBD0A9A98DF4BB53D
:100150004B7F4BBD4AB542604ABD4BB542604BBD7B
:100160000898099A8CDF4BB54D7F4BBDD0CFF894E2
:02017000FFCFBF
:00000001FF
